:020000040000FA
:020000002232AA
:1000100090009015031591008F0A1232DF218F0096
:10002000042186128F091832F7218F0002218612CF
:100030000F081E32FE218F00012186121115830048
:10004000101511002928372829218E0004000200EC
:1000500027321021840080028405040B2B325021AA
:10006000840080028405840B313284021000FF2159
:1000700086000021060080218800FE210F21012139
:1000800003000021810000212100F7210F21FF2121
:100090002000002122008321210000212A00DF21ED
:1000A0000F218021290000212B0083212A0010002C
:00000001FF
