:020000040000FA
:020000001932B3
:1000100090009015031591000F081532FE218F00F6
:100020000121921212018600141811158300101577
:1000300011003328412801218E000400921C120176
:100040008600020014082132141C120193001308C8
:100050002E32121D921C12018600213212199218A2
:100060001201860021321021840080028405040BD5
:1000700035325021840080028405840B3B32840297
:100080001000FF21860092000021060080218800D8
:10009000FE210F21012103000021810005212600FE
:0200A00010004E
:00000001FF
