:020000040000FA
:020000001632B6
:1000100090009015031591000F081232FE218F00F9
:100020000121861211158300101511001D282B289F
:1000300001218E00040002001B3210218400800286
:100040008405040B1F325021840080028405840B38
:10005000253284021000FF21860000210600802145
:100060008800FE210F2101210300002181000021D1
:100070002100F7210F2180212000072122000A21E1
:1000800023008321210000212A00DF210F214021AC
:10009000290007212B000A212C0083212A001000AF
:00000001FF
