:020000040000FA
:020000001D32AF
:1000100090009015031591000F0B1232BF218F0035
:10002000022186120F081932FE218F00012186124B
:1000300012181115830010151100472851280121AD
:100040008E000400020026283828223212081000F0
:10005000121C9305642113040308100093029405F5
:100060000A2114040308100093029402921810004D
:1000700092081000921C692886010000000001000F
:1000800000000000572802008821880010002F215E
:100090009000112184008002840590174B3884025F
:1000A0001000FF2186000821060088218800002119
:1000B0008100BF210F210121030001218E001000CA
:1000C00013000021880002000B210300802188001A
:1000D00010000021880002000B210300802188000D
:0A00E00000218F0040218E00100067
:00000001FF
