:020000040000FA
:020000001D32AF
:1000100090009015031591000F081332FE218F00F8
:100020000121861212180F0A1932EF218F002021A8
:10003000861211158300101511005C286A28002112
:100040008F0011218E000400881A020048283028F1
:100050001F009800180B2E32861B2532861F253272
:1000600012091000121D3A3197001F00E3221711E8
:100070000F00100015019700971307211710820336
:100080000020042008200C201020142018201C2000
:1000900012081000121C921C0E210610940015125A
:1000A0000309583293053C21130403085B321219EB
:1000B0009302140195001000102184008002840531
:1000C000040B5E325021840080028405840B64326C
:1000D00084021000FF2186000E21060000218C0002
:1000E0008821880008218900FE210F2100210300BA
:0600F00000218100100058
:00000001FF
