:020000040000FA
:020000001F32AD
:020010001032AC
:04001C0000000000E0
:1000200090009015031591000F081B32FE218F00E0
:1000300001218612191811158300101511005C2872
:10004000662801218E000400002127000E211102E4
:1000500092003800032293000F211102950038000E
:1000600003229400031C95149414031C95149414F7
:1000700015019311120198001301970014019600C5
:10008000020019084032191C9806FF2118040309C0
:1000900040329706FF211704030940329606FF21DC
:1000A000160403094032042186121201980013013C
:1000B00097001401960040322F21900011218400F6
:1000C000800284059017603884021000FF218600AA
:1000D0000021060080218800FE210F21012103005C
:0600E00000218100100068
:00000001FF
