:020000040000FA
:020000001D32AF
:1000100090009015031591000F0B1232BF218F0035
:10002000022186120F081932FE218F00012186124B
:100030001218111583001015110062287028012173
:100040008E000400121D7D2802003E281209243271
:10005000121D932802003E2812092A32121DA928D7
:100060000A212F00000000000000121D7D28020060
:100070003E2812093732121D502822321208100071
:10008000121C930515011304030810009302940534
:1000900016011404030810009302940212191000B0
:1000A0000821890013000021880002218E00002110
:1000B0008F00860100000000010000000000882180
:1000C000880010001021840080028405040B643233
:1000D0005021840080028405840B6A32840210005F
:1000E000FF218600850008210600FF210500002170
:1000F0008C0009008821880010003F00FD222F009D
:10010000000001232F000000130000218100BF2107
:100110000F210221030001218E0064219500282176
:100120009600040010003F00FE222F000000022372
:100130002F000000130000218100BF210F210021AA
:10014000030001218E000A2195000A219600040077
:1001500010000021880002000B210300802188008C
:0A01600000218F0040218E001000E6
:00000001FF
