:020000040000FA
:020000002132AB
:1000100090009015031591000F081332FE218F00F8
:100020000121861212183F002022030D1D323F00CD
:10003000DF222F00000020218612111583001015E9
:1000400011002F283D2801218E00040002003F00EE
:100050009800980B2D32861B2632861F26321021DF
:10006000840080028405040B313250218400800218
:100070008405840B373284021000FF2186000E2194
:100080000600FF21050000218C008821880008213E
:100090008900FE210F2100210300002181000021A1
:1000A0000E0008193F00DF222F0000003F00502300
:0600B0002F00000010000B
:00000001FF
