:020000040000FA
:020000001D32AF
:1000100090009015031591000F0B1232BF218F0035
:10002000022186120F081932FE218F00012186124B
:100030001218111583001015110062286C28012177
:100040008E000400121D732802003E28120924327B
:10005000121D892802003E2812092A32121D9F28EB
:100060000A212F00000000000000121D732802006A
:100070003E2812093732121D502822321208100071
:10008000121C930515011304030810009302940534
:1000900016011404030810009302940212191000B0
:1000A0000821890013000021880002218E00002110
:1000B0008F00860100000000010000000000882180
:1000C000880010002F2190001121840080028405F7
:1000D0009017663884021000FF2186000821060070
:1000E0008821880010003F00FD222F00000001231E
:1000F0002F000000130000218100BF210F210221E9
:10010000030001218E00642195002821960004003F
:1001100010003F00FE222F00000002232F000000ED
:10012000130000218100BF210F21002103000121C4
:100130008E000A2195000A2196000400100000217B
:10014000880002000B2103008021880000218F001D
:0601500040218E001000AA
:00000001FF
