:020000040000FA
:020000001D32AF
:020010001032AC
:04001C0000000000E0
:1000200090009015031591000F081932FE218F00E2
:1000300019181115830010151100002B0A2B01212E
:100040008E0004003F00FD222F00000001232F003E
:1000500000000021810000219500020019082D32C6
:10006000191C0221861295172D323F00FE222F0007
:10007000000002222F0000000021810020219500B5
:10008000020019084032191C0221861295174032CD
:0200900022321A
:100600002F21900011218400800284059017043B63
:1006100084021000FF21860000210600802188004E
:0E062000FE210F2101210300002181001000A6
:00000001FF
