:020000040000FA
:020000001732B5
:1000100090009015031591000F081332FE218F00F8
:1000200001218612121811158300101511004F2896
:10003000592801218E000400020021283428462876
:100040001C3212081000121C060108229400131220
:100050000309303895053221150403083338921806
:10006000950214019300100092081000921C930056
:100070001612030D100013019600960D100097053F
:100080000221170403081000970210001701012233
:1000900082034B384D3886181000861C10002F2123
:1000A0009000112184008002840590175338840247
:1000B0001000FF2186000821060080218800FE2113
:1000C0000F21012103000021810000212100F721DF
:1000D0000F210021220086212500832121000021FB
:0400E00026001000E6
:00000001FF
