:020000040000FA
:020000001C32B0
:1000100090009015031591008F091232F7218F007F
:10002000042186120F081832FE218F00012186124A
:10003000111583001015110050285E28202193000F
:10004000FF2192000200012186129217223293179B
:10005000203200218F0009218E00040002003F00A1
:10006000FE222F00000002232F0000002021930019
:10007000FF219200020092173A32931738323F0064
:10008000FD222F00000001232F000000FF2193001C
:10009000FF219200020092174A32931748322E3203
:1000A0001021840080028405040B52325021840008
:1000B00080028405840B583284021000FF218600E0
:1000C0003021060080218800FE210F21A12103009C
:1000D0000021810000212100F7210F21FF212000B4
:0A00E000002122000321210010007E
:00000001FF
