:020000040000FA
:020000001732B5
:1000100090009015031591000F081332FE218F00F8
:10002000012186121218111583001015110066287F
:10003000702801218E000400020052282128322855
:100040001C3212091000121D16011512030D313257
:1000500015019600950D3132970502211704030C06
:100060009702100017010309100002009509100003
:10007000061C130002000021880002218E000021CE
:100080008F00860100000000010000000000002138
:100090008F0001218E0002008821880004000121C8
:1000A0009700100012081000121C921C0821061064
:1000B000940015120309623293053C2113040308CE
:1000C0006532121993021401950010002F2190003F
:1000D000112184008002840590176A388402100080
:1000E000FF21860008210600882188000821890058
:0E00F000FE210F2100210300002181001000DD
:00000001FF
